{
  "contractName": "FarmerRegistration",
  "abi": [
    {
      "anonymous": false,
      "inputs": [
        {
          "indexed": false,
          "internalType": "uint256",
          "name": "disputeId",
          "type": "uint256"
        },
        {
          "indexed": true,
          "internalType": "address",
          "name": "consumer",
          "type": "address"
        },
        {
          "indexed": false,
          "internalType": "uint256",
          "name": "batchId",
          "type": "uint256"
        },
        {
          "indexed": false,
          "internalType": "string",
          "name": "reason",
          "type": "string"
        }
      ],
      "name": "DisputeFiled",
      "type": "event"
    },
    {
      "anonymous": false,
      "inputs": [
        {
          "indexed": false,
          "internalType": "uint256",
          "name": "disputeId",
          "type": "uint256"
        },
        {
          "indexed": true,
          "internalType": "address",
          "name": "farmer",
          "type": "address"
        },
        {
          "indexed": false,
          "internalType": "string",
          "name": "reason",
          "type": "string"
        }
      ],
      "name": "DisputeRejected",
      "type": "event"
    },
    {
      "anonymous": false,
      "inputs": [
        {
          "indexed": false,
          "internalType": "uint256",
          "name": "disputeId",
          "type": "uint256"
        },
        {
          "indexed": true,
          "internalType": "address",
          "name": "farmer",
          "type": "address"
        },
        {
          "indexed": false,
          "internalType": "string",
          "name": "resolution",
          "type": "string"
        }
      ],
      "name": "DisputeResolved",
      "type": "event"
    },
    {
      "anonymous": false,
      "inputs": [
        {
          "indexed": false,
          "internalType": "uint256",
          "name": "farmerId",
          "type": "uint256"
        },
        {
          "indexed": false,
          "internalType": "address",
          "name": "farmerAddress",
          "type": "address"
        },
        {
          "indexed": false,
          "internalType": "string",
          "name": "name",
          "type": "string"
        }
      ],
      "name": "FarmerRegistered",
      "type": "event"
    },
    {
      "anonymous": false,
      "inputs": [
        {
          "indexed": false,
          "internalType": "uint256",
          "name": "batchId",
          "type": "uint256"
        },
        {
          "indexed": false,
          "internalType": "address",
          "name": "farmerAddress",
          "type": "address"
        },
        {
          "indexed": false,
          "internalType": "uint256",
          "name": "quantity",
          "type": "uint256"
        },
        {
          "indexed": false,
          "internalType": "uint256",
          "name": "pricePerLiter",
          "type": "uint256"
        },
        {
          "indexed": false,
          "internalType": "uint256",
          "name": "expiryDate",
          "type": "uint256"
        }
      ],
      "name": "MilkBatchRegistered",
      "type": "event"
    },
    {
      "anonymous": false,
      "inputs": [
        {
          "indexed": false,
          "internalType": "uint256",
          "name": "orderId",
          "type": "uint256"
        }
      ],
      "name": "OrderDelivered",
      "type": "event"
    },
    {
      "anonymous": false,
      "inputs": [
        {
          "indexed": false,
          "internalType": "uint256",
          "name": "orderId",
          "type": "uint256"
        },
        {
          "indexed": false,
          "internalType": "address",
          "name": "buyer",
          "type": "address"
        },
        {
          "indexed": false,
          "internalType": "uint256",
          "name": "batchId",
          "type": "uint256"
        },
        {
          "indexed": false,
          "internalType": "uint256",
          "name": "quantity",
          "type": "uint256"
        },
        {
          "indexed": false,
          "internalType": "uint256",
          "name": "totalPrice",
          "type": "uint256"
        }
      ],
      "name": "OrderPlaced",
      "type": "event"
    },
    {
      "anonymous": false,
      "inputs": [
        {
          "indexed": false,
          "internalType": "uint256",
          "name": "refundId",
          "type": "uint256"
        },
        {
          "indexed": false,
          "internalType": "uint256",
          "name": "orderId",
          "type": "uint256"
        }
      ],
      "name": "RefundApproved",
      "type": "event"
    },
    {
      "anonymous": false,
      "inputs": [
        {
          "indexed": false,
          "internalType": "uint256",
          "name": "refundId",
          "type": "uint256"
        },
        {
          "indexed": false,
          "internalType": "uint256",
          "name": "orderId",
          "type": "uint256"
        },
        {
          "indexed": false,
          "internalType": "uint256",
          "name": "amount",
          "type": "uint256"
        }
      ],
      "name": "RefundPaid",
      "type": "event"
    },
    {
      "anonymous": false,
      "inputs": [
        {
          "indexed": false,
          "internalType": "uint256",
          "name": "refundId",
          "type": "uint256"
        },
        {
          "indexed": false,
          "internalType": "uint256",
          "name": "orderId",
          "type": "uint256"
        }
      ],
      "name": "RefundRejected",
      "type": "event"
    },
    {
      "anonymous": false,
      "inputs": [
        {
          "indexed": false,
          "internalType": "uint256",
          "name": "refundId",
          "type": "uint256"
        },
        {
          "indexed": false,
          "internalType": "uint256",
          "name": "orderId",
          "type": "uint256"
        },
        {
          "indexed": false,
          "internalType": "address",
          "name": "buyer",
          "type": "address"
        },
        {
          "indexed": false,
          "internalType": "uint256",
          "name": "amount",
          "type": "uint256"
        }
      ],
      "name": "RefundRequested",
      "type": "event"
    },
    {
      "anonymous": false,
      "inputs": [
        {
          "indexed": false,
          "internalType": "uint256",
          "name": "orderId",
          "type": "uint256"
        },
        {
          "indexed": false,
          "internalType": "address",
          "name": "buyer",
          "type": "address"
        },
        {
          "indexed": false,
          "internalType": "address",
          "name": "farmer",
          "type": "address"
        },
        {
          "indexed": false,
          "internalType": "uint8",
          "name": "rating",
          "type": "uint8"
        },
        {
          "indexed": false,
          "internalType": "string",
          "name": "comment",
          "type": "string"
        }
      ],
      "name": "ReviewSubmitted",
      "type": "event"
    },
    {
      "inputs": [],
      "name": "batchCounter",
      "outputs": [
        {
          "internalType": "uint256",
          "name": "",
          "type": "uint256"
        }
      ],
      "stateMutability": "view",
      "type": "function",
      "constant": true
    },
    {
      "inputs": [],
      "name": "disputeCounter",
      "outputs": [
        {
          "internalType": "uint256",
          "name": "",
          "type": "uint256"
        }
      ],
      "stateMutability": "view",
      "type": "function",
      "constant": true
    },
    {
      "inputs": [
        {
          "internalType": "uint256",
          "name": "",
          "type": "uint256"
        }
      ],
      "name": "disputes",
      "outputs": [
        {
          "internalType": "uint256",
          "name": "disputeId",
          "type": "uint256"
        },
        {
          "internalType": "address",
          "name": "consumer",
          "type": "address"
        },
        {
          "internalType": "address",
          "name": "farmer",
          "type": "address"
        },
        {
          "internalType": "uint256",
          "name": "batchId",
          "type": "uint256"
        },
        {
          "internalType": "string",
          "name": "reason",
          "type": "string"
        },
        {
          "internalType": "enum FarmerRegistration.DisputeStatus",
          "name": "status",
          "type": "uint8"
        }
      ],
      "stateMutability": "view",
      "type": "function",
      "constant": true
    },
    {
      "inputs": [],
      "name": "farmerCounter",
      "outputs": [
        {
          "internalType": "uint256",
          "name": "",
          "type": "uint256"
        }
      ],
      "stateMutability": "view",
      "type": "function",
      "constant": true
    },
    {
      "inputs": [
        {
          "internalType": "address",
          "name": "",
          "type": "address"
        },
        {
          "internalType": "uint256",
          "name": "",
          "type": "uint256"
        }
      ],
      "name": "farmerReviews",
      "outputs": [
        {
          "internalType": "uint256",
          "name": "",
          "type": "uint256"
        }
      ],
      "stateMutability": "view",
      "type": "function",
      "constant": true
    },
    {
      "inputs": [
        {
          "internalType": "address",
          "name": "",
          "type": "address"
        }
      ],
      "name": "farmers",
      "outputs": [
        {
          "internalType": "uint256",
          "name": "id",
          "type": "uint256"
        },
        {
          "internalType": "address",
          "name": "farmerAddress",
          "type": "address"
        },
        {
          "internalType": "string",
          "name": "name",
          "type": "string"
        },
        {
          "internalType": "bool",
          "name": "isRegistered",
          "type": "bool"
        }
      ],
      "stateMutability": "view",
      "type": "function",
      "constant": true
    },
    {
      "inputs": [
        {
          "internalType": "uint256",
          "name": "",
          "type": "uint256"
        }
      ],
      "name": "milkBatches",
      "outputs": [
        {
          "internalType": "uint256",
          "name": "batchId",
          "type": "uint256"
        },
        {
          "internalType": "address",
          "name": "farmerAddress",
          "type": "address"
        },
        {
          "internalType": "uint256",
          "name": "quantity",
          "type": "uint256"
        },
        {
          "internalType": "uint256",
          "name": "pricePerLiter",
          "type": "uint256"
        },
        {
          "internalType": "uint256",
          "name": "expiryDate",
          "type": "uint256"
        },
        {
          "internalType": "bool",
          "name": "isAvailable",
          "type": "bool"
        }
      ],
      "stateMutability": "view",
      "type": "function",
      "constant": true
    },
    {
      "inputs": [],
      "name": "orderCounter",
      "outputs": [
        {
          "internalType": "uint256",
          "name": "",
          "type": "uint256"
        }
      ],
      "stateMutability": "view",
      "type": "function",
      "constant": true
    },
    {
      "inputs": [
        {
          "internalType": "uint256",
          "name": "",
          "type": "uint256"
        }
      ],
      "name": "orders",
      "outputs": [
        {
          "internalType": "uint256",
          "name": "orderId",
          "type": "uint256"
        },
        {
          "internalType": "address",
          "name": "buyer",
          "type": "address"
        },
        {
          "internalType": "uint256",
          "name": "batchId",
          "type": "uint256"
        },
        {
          "internalType": "uint256",
          "name": "quantity",
          "type": "uint256"
        },
        {
          "internalType": "uint256",
          "name": "totalPrice",
          "type": "uint256"
        },
        {
          "internalType": "bool",
          "name": "isDelivered",
          "type": "bool"
        }
      ],
      "stateMutability": "view",
      "type": "function",
      "constant": true
    },
    {
      "inputs": [
        {
          "internalType": "address",
          "name": "",
          "type": "address"
        }
      ],
      "name": "ratingCount",
      "outputs": [
        {
          "internalType": "uint256",
          "name": "",
          "type": "uint256"
        }
      ],
      "stateMutability": "view",
      "type": "function",
      "constant": true
    },
    {
      "inputs": [],
      "name": "refundCounter",
      "outputs": [
        {
          "internalType": "uint256",
          "name": "",
          "type": "uint256"
        }
      ],
      "stateMutability": "view",
      "type": "function",
      "constant": true
    },
    {
      "inputs": [
        {
          "internalType": "uint256",
          "name": "",
          "type": "uint256"
        }
      ],
      "name": "refunds",
      "outputs": [
        {
          "internalType": "uint256",
          "name": "refundId",
          "type": "uint256"
        },
        {
          "internalType": "uint256",
          "name": "orderId",
          "type": "uint256"
        },
        {
          "internalType": "address",
          "name": "buyer",
          "type": "address"
        },
        {
          "internalType": "address payable",
          "name": "farmer",
          "type": "address"
        },
        {
          "internalType": "uint256",
          "name": "amount",
          "type": "uint256"
        },
        {
          "internalType": "bool",
          "name": "isApproved",
          "type": "bool"
        },
        {
          "internalType": "bool",
          "name": "isResolved",
          "type": "bool"
        }
      ],
      "stateMutability": "view",
      "type": "function",
      "constant": true
    },
    {
      "inputs": [
        {
          "internalType": "uint256",
          "name": "",
          "type": "uint256"
        }
      ],
      "name": "reviews",
      "outputs": [
        {
          "internalType": "uint256",
          "name": "orderId",
          "type": "uint256"
        },
        {
          "internalType": "address",
          "name": "buyer",
          "type": "address"
        },
        {
          "internalType": "address",
          "name": "farmer",
          "type": "address"
        },
        {
          "internalType": "uint8",
          "name": "rating",
          "type": "uint8"
        },
        {
          "internalType": "string",
          "name": "comment",
          "type": "string"
        },
        {
          "internalType": "uint256",
          "name": "timestamp",
          "type": "uint256"
        }
      ],
      "stateMutability": "view",
      "type": "function",
      "constant": true
    },
    {
      "inputs": [
        {
          "internalType": "address",
          "name": "",
          "type": "address"
        }
      ],
      "name": "totalRatings",
      "outputs": [
        {
          "internalType": "uint256",
          "name": "",
          "type": "uint256"
        }
      ],
      "stateMutability": "view",
      "type": "function",
      "constant": true
    },
    {
      "inputs": [
        {
          "internalType": "string",
          "name": "_name",
          "type": "string"
        }
      ],
      "name": "registerFarmer",
      "outputs": [],
      "stateMutability": "nonpayable",
      "type": "function"
    },
    {
      "inputs": [
        {
          "internalType": "address",
          "name": "_farmer",
          "type": "address"
        }
      ],
      "name": "getFarmer",
      "outputs": [
        {
          "components": [
            {
              "internalType": "uint256",
              "name": "id",
              "type": "uint256"
            },
            {
              "internalType": "address",
              "name": "farmerAddress",
              "type": "address"
            },
            {
              "internalType": "string",
              "name": "name",
              "type": "string"
            },
            {
              "internalType": "bool",
              "name": "isRegistered",
              "type": "bool"
            }
          ],
          "internalType": "struct FarmerRegistration.Farmer",
          "name": "",
          "type": "tuple"
        }
      ],
      "stateMutability": "view",
      "type": "function",
      "constant": true
    },
    {
      "inputs": [
        {
          "internalType": "uint256",
          "name": "_quantity",
          "type": "uint256"
        },
        {
          "internalType": "uint256",
          "name": "_pricePerLiter",
          "type": "uint256"
        },
        {
          "internalType": "uint256",
          "name": "_expiryDate",
          "type": "uint256"
        }
      ],
      "name": "registerMilkBatch",
      "outputs": [],
      "stateMutability": "nonpayable",
      "type": "function"
    },
    {
      "inputs": [
        {
          "internalType": "uint256",
          "name": "_batchId",
          "type": "uint256"
        }
      ],
      "name": "getMilkBatch",
      "outputs": [
        {
          "components": [
            {
              "internalType": "uint256",
              "name": "batchId",
              "type": "uint256"
            },
            {
              "internalType": "address",
              "name": "farmerAddress",
              "type": "address"
            },
            {
              "internalType": "uint256",
              "name": "quantity",
              "type": "uint256"
            },
            {
              "internalType": "uint256",
              "name": "pricePerLiter",
              "type": "uint256"
            },
            {
              "internalType": "uint256",
              "name": "expiryDate",
              "type": "uint256"
            },
            {
              "internalType": "bool",
              "name": "isAvailable",
              "type": "bool"
            }
          ],
          "internalType": "struct FarmerRegistration.MilkBatch",
          "name": "",
          "type": "tuple"
        }
      ],
      "stateMutability": "view",
      "type": "function",
      "constant": true
    },
    {
      "inputs": [
        {
          "internalType": "uint256",
          "name": "_batchId",
          "type": "uint256"
        },
        {
          "internalType": "uint256",
          "name": "_quantity",
          "type": "uint256"
        },
        {
          "internalType": "uint256",
          "name": "_pricePerLiter",
          "type": "uint256"
        }
      ],
      "name": "placeOrder",
      "outputs": [],
      "stateMutability": "payable",
      "type": "function",
      "payable": true
    },
    {
      "inputs": [
        {
          "internalType": "uint256",
          "name": "_orderId",
          "type": "uint256"
        }
      ],
      "name": "confirmDelivery",
      "outputs": [],
      "stateMutability": "nonpayable",
      "type": "function"
    },
    {
      "inputs": [
        {
          "internalType": "uint256",
          "name": "_orderId",
          "type": "uint256"
        }
      ],
      "name": "getOrder",
      "outputs": [
        {
          "components": [
            {
              "internalType": "uint256",
              "name": "orderId",
              "type": "uint256"
            },
            {
              "internalType": "address",
              "name": "buyer",
              "type": "address"
            },
            {
              "internalType": "uint256",
              "name": "batchId",
              "type": "uint256"
            },
            {
              "internalType": "uint256",
              "name": "quantity",
              "type": "uint256"
            },
            {
              "internalType": "uint256",
              "name": "totalPrice",
              "type": "uint256"
            },
            {
              "internalType": "bool",
              "name": "isDelivered",
              "type": "bool"
            }
          ],
          "internalType": "struct FarmerRegistration.Order",
          "name": "",
          "type": "tuple"
        }
      ],
      "stateMutability": "view",
      "type": "function",
      "constant": true
    },
    {
      "inputs": [
        {
          "internalType": "uint256",
          "name": "_batchId",
          "type": "uint256"
        },
        {
          "internalType": "address",
          "name": "_farmer",
          "type": "address"
        },
        {
          "internalType": "string",
          "name": "_reason",
          "type": "string"
        }
      ],
      "name": "fileDispute",
      "outputs": [],
      "stateMutability": "nonpayable",
      "type": "function"
    },
    {
      "inputs": [
        {
          "internalType": "uint256",
          "name": "_disputeId",
          "type": "uint256"
        },
        {
          "internalType": "string",
          "name": "_resolution",
          "type": "string"
        }
      ],
      "name": "resolveDispute",
      "outputs": [],
      "stateMutability": "nonpayable",
      "type": "function"
    },
    {
      "inputs": [
        {
          "internalType": "uint256",
          "name": "_disputeId",
          "type": "uint256"
        }
      ],
      "name": "getDispute",
      "outputs": [
        {
          "internalType": "uint256",
          "name": "",
          "type": "uint256"
        },
        {
          "internalType": "address",
          "name": "",
          "type": "address"
        },
        {
          "internalType": "address",
          "name": "",
          "type": "address"
        },
        {
          "internalType": "uint256",
          "name": "",
          "type": "uint256"
        },
        {
          "internalType": "string",
          "name": "",
          "type": "string"
        },
        {
          "internalType": "enum FarmerRegistration.DisputeStatus",
          "name": "",
          "type": "uint8"
        }
      ],
      "stateMutability": "view",
      "type": "function",
      "constant": true
    },
    {
      "inputs": [
        {
          "internalType": "uint256",
          "name": "_orderId",
          "type": "uint256"
        },
        {
          "internalType": "address payable",
          "name": "_farmer",
          "type": "address"
        },
        {
          "internalType": "uint256",
          "name": "_amount",
          "type": "uint256"
        }
      ],
      "name": "requestRefund",
      "outputs": [],
      "stateMutability": "nonpayable",
      "type": "function"
    },
    {
      "inputs": [
        {
          "internalType": "uint256",
          "name": "_refundId",
          "type": "uint256"
        }
      ],
      "name": "approveRefund",
      "outputs": [],
      "stateMutability": "nonpayable",
      "type": "function"
    },
    {
      "inputs": [
        {
          "internalType": "uint256",
          "name": "_refundId",
          "type": "uint256"
        }
      ],
      "name": "rejectRefund",
      "outputs": [],
      "stateMutability": "nonpayable",
      "type": "function"
    },
    {
      "inputs": [
        {
          "internalType": "uint256",
          "name": "_refundId",
          "type": "uint256"
        }
      ],
      "name": "getRefundRequest",
      "outputs": [
        {
          "components": [
            {
              "internalType": "uint256",
              "name": "refundId",
              "type": "uint256"
            },
            {
              "internalType": "uint256",
              "name": "orderId",
              "type": "uint256"
            },
            {
              "internalType": "address",
              "name": "buyer",
              "type": "address"
            },
            {
              "internalType": "address payable",
              "name": "farmer",
              "type": "address"
            },
            {
              "internalType": "uint256",
              "name": "amount",
              "type": "uint256"
            },
            {
              "internalType": "bool",
              "name": "isApproved",
              "type": "bool"
            },
            {
              "internalType": "bool",
              "name": "isResolved",
              "type": "bool"
            }
          ],
          "internalType": "struct FarmerRegistration.RefundRequest",
          "name": "",
          "type": "tuple"
        }
      ],
      "stateMutability": "view",
      "type": "function",
      "constant": true
    },
    {
      "inputs": [
        {
          "internalType": "uint256",
          "name": "_orderId",
          "type": "uint256"
        },
        {
          "internalType": "address",
          "name": "_farmer",
          "type": "address"
        },
        {
          "internalType": "uint8",
          "name": "_rating",
          "type": "uint8"
        },
        {
          "internalType": "string",
          "name": "_comment",
          "type": "string"
        }
      ],
      "name": "submitReview",
      "outputs": [],
      "stateMutability": "nonpayable",
      "type": "function"
    },
    {
      "inputs": [
        {
          "internalType": "uint256",
          "name": "_orderId",
          "type": "uint256"
        }
      ],
      "name": "getReview",
      "outputs": [
        {
          "components": [
            {
              "internalType": "uint256",
              "name": "orderId",
              "type": "uint256"
            },
            {
              "internalType": "address",
              "name": "buyer",
              "type": "address"
            },
            {
              "internalType": "address",
              "name": "farmer",
              "type": "address"
            },
            {
              "internalType": "uint8",
              "name": "rating",
              "type": "uint8"
            },
            {
              "internalType": "string",
              "name": "comment",
              "type": "string"
            },
            {
              "internalType": "uint256",
              "name": "timestamp",
              "type": "uint256"
            }
          ],
          "internalType": "struct FarmerRegistration.Review",
          "name": "",
          "type": "tuple"
        }
      ],
      "stateMutability": "view",
      "type": "function",
      "constant": true
    },
    {
      "inputs": [
        {
          "internalType": "address",
          "name": "_farmer",
          "type": "address"
        }
      ],
      "name": "getFarmerAverageRating",
      "outputs": [
        {
          "internalType": "uint256",
          "name": "",
          "type": "uint256"
        }
      ],
      "stateMutability": "view",
      "type": "function",
      "constant": true
    },
    {
      "inputs": [
        {
          "internalType": "address",
          "name": "_farmer",
          "type": "address"
        }
      ],
      "name": "getFarmerReviews",
      "outputs": [
        {
          "internalType": "uint256[]",
          "name": "",
          "type": "uint256[]"
        }
      ],
      "stateMutability": "view",
      "type": "function",
      "constant": true
    }
  ],
  "bytecode": "0x60806040526000805560006001556000600255600060045534801561002357600080fd5b506147a9806100336000396000f3fe6080604052600436106101e35760003560e01c80637fd865ab11610102578063d09ef24111610095578063e83ddcea11610064578063e83ddcea146107a8578063eed8279b146107ea578063f89fe22f14610815578063fd84cb9714610852576101e3565b8063d09ef241146106a9578063e36bd0f3146106e6578063e3a96cbd14610729578063e7609c161461076b576101e3565b8063a85c38ef116100d1578063a85c38ef146105d6578063b789bf5214610618578063be60b0b814610643578063cf51b45d14610680576101e3565b80637fd865ab146104f65780638b609dab14610533578063990581b614610570578063a07ff95a146105ad576101e3565b80634e266aea1161017a5780636959fd95116101495780636959fd95146104505780636f0203ba146104795780637ba7295e146104a25780637d36f4d3146104cb576101e3565b80634e266aea14610364578063564a565d146103a657806365fdd1a1146103e857806368233eef14610425576101e3565b80632404165e116101b65780632404165e14610295578063348a71a6146102d25780633c6bdab3146102fb578063401b216814610324576101e3565b80630503b954146101e85780630abfbb75146102115780630b9bf2091461024e5780630e97cfdf14610279575b600080fd5b3480156101f457600080fd5b5061020f600480360381019061020a9190612e90565b61087b565b005b34801561021d57600080fd5b5061023860048036038101906102339190612ee3565b610a85565b6040516102459190612ff8565b60405180910390f35b34801561025a57600080fd5b50610263610bb2565b6040516102709190613022565b60405180910390f35b610293600480360381019061028e919061303d565b610bb8565b005b3480156102a157600080fd5b506102bc60048036038101906102b791906130bc565b610d9b565b6040516102c99190613022565b60405180910390f35b3480156102de57600080fd5b506102f960048036038101906102f49190612ee3565b610db3565b005b34801561030757600080fd5b50610322600480360381019061031d9190613268565b611049565b005b34801561033057600080fd5b5061034b600480360381019061034691906130bc565b6113a6565b60405161035b9493929190613391565b60405180910390f35b34801561037057600080fd5b5061038b60048036038101906103869190612ee3565b61148b565b60405161039d969594939291906133dd565b60405180910390f35b3480156103b257600080fd5b506103cd60048036038101906103c89190612ee3565b6114f4565b6040516103df969594939291906134b5565b60405180910390f35b3480156103f457600080fd5b5061040f600480360381019061040a919061351d565b611605565b60405161041c9190613022565b60405180910390f35b34801561043157600080fd5b5061043a611636565b6040516104479190613022565b60405180910390f35b34801561045c57600080fd5b506104776004803603810190610472919061355d565b61163c565b005b34801561048557600080fd5b506104a0600480360381019061049b9190612ee3565b611822565b005b3480156104ae57600080fd5b506104c960048036038101906104c491906135cc565b61197b565b005b3480156104d757600080fd5b506104e0611b6d565b6040516104ed9190613022565b60405180910390f35b34801561050257600080fd5b5061051d600480360381019061051891906130bc565b611b73565b60405161052a91906136c4565b60405180910390f35b34801561053f57600080fd5b5061055a600480360381019061055591906130bc565b611c0a565b6040516105679190613022565b60405180910390f35b34801561057c57600080fd5b5061059760048036038101906105929190612ee3565b611c22565b6040516105a491906137c8565b60405180910390f35b3480156105b957600080fd5b506105d460048036038101906105cf919061303d565b611dbe565b005b3480156105e257600080fd5b506105fd60048036038101906105f89190612ee3565b611f90565b60405161060f969594939291906133dd565b60405180910390f35b34801561062457600080fd5b5061062d611ff9565b60405161063a9190613022565b60405180910390f35b34801561064f57600080fd5b5061066a60048036038101906106659190612ee3565b611fff565b6040516106779190613865565b60405180910390f35b34801561068c57600080fd5b506106a760048036038101906106a29190613880565b612128565b005b3480156106b557600080fd5b506106d060048036038101906106cb9190612ee3565b6122e9565b6040516106dd9190613957565b60405180910390f35b3480156106f257600080fd5b5061070d60048036038101906107089190612ee3565b6123af565b6040516107209796959493929190613981565b60405180910390f35b34801561073557600080fd5b50610750600480360381019061074b9190612ee3565b61244b565b604051610762969594939291906134b5565b60405180910390f35b34801561077757600080fd5b50610792600480360381019061078d91906130bc565b612637565b60405161079f9190613a53565b60405180910390f35b3480156107b457600080fd5b506107cf60048036038101906107ca9190612ee3565b61282c565b6040516107e196959493929190613a84565b60405180910390f35b3480156107f657600080fd5b506107ff61293d565b60405161080c9190613022565b60405180910390f35b34801561082157600080fd5b5061083c600480360381019061083791906130bc565b612943565b6040516108499190613022565b60405180910390f35b34801561085e57600080fd5b5061087960048036038101906108749190612ee3565b612a26565b005b600081116108be576040517f08c379a00000000000000000000000000000000000000000000000000000000081526004016108b590613b5e565b60405180910390fd5b600260008154809291906108d190613bad565b91905055506040518060e0016040528060025481526020018481526020013373ffffffffffffffffffffffffffffffffffffffff1681526020018373ffffffffffffffffffffffffffffffffffffffff16815260200182815260200160001515815260200160001515815250600960006002548152602001908152602001600020600082015181600001556020820151816001015560408201518160020160006101000a81548173ffffffffffffffffffffffffffffffffffffffff021916908373ffffffffffffffffffffffffffffffffffffffff16021790555060608201518160030160006101000a81548173ffffffffffffffffffffffffffffffffffffffff021916908373ffffffffffffffffffffffffffffffffffffffff1602179055506080820151816004015560a08201518160050160006101000a81548160ff02191690831515021790555060c08201518160050160016101000a81548160ff0219169083151502179055509050507f60cac1b8d9b65a1565b4c0928f37947e78fa7eb62c069bf16db8fa07d0b3ed9e600254843384604051610a789493929190613bf5565b60405180910390a1505050565b610a8d612b97565b600960008381526020019081526020016000206040518060e001604052908160008201548152602001600182015481526020016002820160009054906101000a900473ffffffffffffffffffffffffffffffffffffffff1673ffffffffffffffffffffffffffffffffffffffff1673ffffffffffffffffffffffffffffffffffffffff1681526020016003820160009054906101000a900473ffffffffffffffffffffffffffffffffffffffff1673ffffffffffffffffffffffffffffffffffffffff1673ffffffffffffffffffffffffffffffffffffffff168152602001600482015481526020016005820160009054906101000a900460ff161515151581526020016005820160019054906101000a900460ff1615151515815250509050919050565b60005481565b60008211610bfb576040517f08c379a0000000000000000000000000000000000000000000000000000000008152600401610bf290613cac565b60405180910390fd5b60008183610c099190613ccc565b9050803414610c4d576040517f08c379a0000000000000000000000000000000000000000000000000000000008152600401610c4490613d72565b60405180910390fd5b60016000815480929190610c6090613bad565b91905055506040518060c0016040528060015481526020013373ffffffffffffffffffffffffffffffffffffffff168152602001858152602001848152602001828152602001600015158152506007600060015481526020019081526020016000206000820151816000015560208201518160010160006101000a81548173ffffffffffffffffffffffffffffffffffffffff021916908373ffffffffffffffffffffffffffffffffffffffff16021790555060408201518160020155606082015181600301556080820151816004015560a08201518160050160006101000a81548160ff0219169083151502179055509050507f73d269ae9c85bfa23c18c756ce946fee3d4bd61627467b157781630dfd5795e060015433868685604051610d8d959493929190613d92565b60405180910390a150505050565b600d6020528060005260406000206000915090505481565b60006009600083815260200190815260200160002090508060030160009054906101000a900473ffffffffffffffffffffffffffffffffffffffff1673ffffffffffffffffffffffffffffffffffffffff163373ffffffffffffffffffffffffffffffffffffffff1614610e5c576040517f08c379a0000000000000000000000000000000000000000000000000000000008152600401610e5390613e57565b60405180910390fd5b8060050160019054906101000a900460ff1615610eae576040517f08c379a0000000000000000000000000000000000000000000000000000000008152600401610ea590613ec3565b60405180910390fd5b60018160050160006101000a81548160ff02191690831515021790555060018160050160016101000a81548160ff02191690831515021790555060008160020160009054906101000a900473ffffffffffffffffffffffffffffffffffffffff16905060008260040154905060008273ffffffffffffffffffffffffffffffffffffffff1682604051610f4090613f14565b60006040518083038185875af1925050503d8060008114610f7d576040519150601f19603f3d011682016040523d82523d6000602084013e610f82565b606091505b5050905080610fc6576040517f08c379a0000000000000000000000000000000000000000000000000000000008152600401610fbd90613f75565b60405180910390fd5b7f0f0f4ee4fa3ca5587c1aa2568df6d3073b0e8f4d72fe9320aa7a27ebf2b065a8858560010154604051610ffb929190613f95565b60405180910390a17fe66008654c5b44d5c9f6cfd37c8a7ad247a45d5c9b7bd8b862ade2db0af6d7738585600101548460405161103a93929190613fbe565b60405180910390a15050505050565b8160018160ff1610158015611062575060058160ff1611155b6110a1576040517f08c379a000000000000000000000000000000000000000000000000000000000815260040161109890614041565b60405180910390fd5b6000600a600087815260200190815260200160002060000154146110fa576040517f08c379a00000000000000000000000000000000000000000000000000000000081526004016110f1906140d3565b60405180910390fd5b6040518060c001604052808681526020013373ffffffffffffffffffffffffffffffffffffffff1681526020018573ffffffffffffffffffffffffffffffffffffffff1681526020018460ff16815260200183815260200142815250600a60008781526020019081526020016000206000820151816000015560208201518160010160006101000a81548173ffffffffffffffffffffffffffffffffffffffff021916908373ffffffffffffffffffffffffffffffffffffffff16021790555060408201518160020160006101000a81548173ffffffffffffffffffffffffffffffffffffffff021916908373ffffffffffffffffffffffffffffffffffffffff16021790555060608201518160020160146101000a81548160ff021916908360ff160217905550608082015181600301908051906020019061123e929190612c04565b5060a08201518160040155905050600b60008573ffffffffffffffffffffffffffffffffffffffff1673ffffffffffffffffffffffffffffffffffffffff1681526020019081526020016000208590806001815401808255809150506001900390600052602060002001600090919091909150558260ff16600c60008673ffffffffffffffffffffffffffffffffffffffff1673ffffffffffffffffffffffffffffffffffffffff168152602001908152602001600020600082825461130491906140f3565b92505081905550600d60008573ffffffffffffffffffffffffffffffffffffffff1673ffffffffffffffffffffffffffffffffffffffff168152602001908152602001600020600081548092919061135b90613bad565b91905055507f0d1d6b5fdcc269f15c3c023f437df57afaf129b821fdca9726533515f0717f288533868686604051611397959493929190614149565b60405180910390a15050505050565b60056020528060005260406000206000915090508060000154908060010160009054906101000a900473ffffffffffffffffffffffffffffffffffffffff16908060020180546113f5906141d2565b80601f0160208091040260200160405190810160405280929190818152602001828054611421906141d2565b801561146e5780601f106114435761010080835404028352916020019161146e565b820191906000526020600020905b81548152906001019060200180831161145157829003601f168201915b5050505050908060030160009054906101000a900460ff16905084565b60066020528060005260406000206000915090508060000154908060010160009054906101000a900473ffffffffffffffffffffffffffffffffffffffff16908060020154908060030154908060040154908060050160009054906101000a900460ff16905086565b60086020528060005260406000206000915090508060000154908060010160009054906101000a900473ffffffffffffffffffffffffffffffffffffffff16908060020160009054906101000a900473ffffffffffffffffffffffffffffffffffffffff169080600301549080600401805461156f906141d2565b80601f016020809104026020016040519081016040528092919081815260200182805461159b906141d2565b80156115e85780601f106115bd576101008083540402835291602001916115e8565b820191906000526020600020905b8154815290600101906020018083116115cb57829003601f168201915b5050505050908060050160009054906101000a900460ff16905086565b600b602052816000526040600020818154811061162157600080fd5b90600052602060002001600091509150505481565b60045481565b6003600081548092919061164f90613bad565b91905055506040518060c0016040528060035481526020013373ffffffffffffffffffffffffffffffffffffffff1681526020018373ffffffffffffffffffffffffffffffffffffffff168152602001848152602001828152602001600060028111156116bf576116be61343e565b5b8152506008600060035481526020019081526020016000206000820151816000015560208201518160010160006101000a81548173ffffffffffffffffffffffffffffffffffffffff021916908373ffffffffffffffffffffffffffffffffffffffff16021790555060408201518160020160006101000a81548173ffffffffffffffffffffffffffffffffffffffff021916908373ffffffffffffffffffffffffffffffffffffffff160217905550606082015181600301556080820151816004019080519060200190611795929190612c04565b5060a08201518160050160006101000a81548160ff021916908360028111156117c1576117c061343e565b5b02179055509050503373ffffffffffffffffffffffffffffffffffffffff167fe47eda19b08b1bf66aea1dd00e138e0186da7e2c0215039dc4aec51636d42e38600354858460405161181593929190614203565b60405180910390a2505050565b60006009600083815260200190815260200160002090508060030160009054906101000a900473ffffffffffffffffffffffffffffffffffffffff1673ffffffffffffffffffffffffffffffffffffffff163373ffffffffffffffffffffffffffffffffffffffff16146118cb576040517f08c379a00000000000000000000000000000000000000000000000000000000081526004016118c2906142b3565b60405180910390fd5b8060050160019054906101000a900460ff161561191d576040517f08c379a000000000000000000000000000000000000000000000000000000000815260040161191490613ec3565b60405180910390fd5b60018160050160016101000a81548160ff0219169083151502179055507fba85787235059e444634475305c8dd04b65ab77828f1dce8bceae26dae76b26782826001015460405161196f929190613f95565b60405180910390a15050565b600560003373ffffffffffffffffffffffffffffffffffffffff1673ffffffffffffffffffffffffffffffffffffffff16815260200190815260200160002060030160009054906101000a900460ff1615611a0b576040517f08c379a0000000000000000000000000000000000000000000000000000000008152600401611a029061431f565b60405180910390fd5b600080815480929190611a1d90613bad565b9190505550604051806080016040528060005481526020013373ffffffffffffffffffffffffffffffffffffffff16815260200182815260200160011515815250600560003373ffffffffffffffffffffffffffffffffffffffff1673ffffffffffffffffffffffffffffffffffffffff1681526020019081526020016000206000820151816000015560208201518160010160006101000a81548173ffffffffffffffffffffffffffffffffffffffff021916908373ffffffffffffffffffffffffffffffffffffffff1602179055506040820151816002019080519060200190611b0a929190612c04565b5060608201518160030160006101000a81548160ff0219169083151502179055509050507ed1b00de820fb68e740812550c25879e97400dbbbf6760c08281f0a5734fb5b6000543383604051611b629392919061433f565b60405180910390a150565b60035481565b6060600b60008373ffffffffffffffffffffffffffffffffffffffff1673ffffffffffffffffffffffffffffffffffffffff168152602001908152602001600020805480602002602001604051908101604052809291908181526020018280548015611bfe57602002820191906000526020600020905b815481526020019060010190808311611bea575b50505050509050919050565b600c6020528060005260406000206000915090505481565b611c2a612c8a565b600a60008381526020019081526020016000206040518060c0016040529081600082015481526020016001820160009054906101000a900473ffffffffffffffffffffffffffffffffffffffff1673ffffffffffffffffffffffffffffffffffffffff1673ffffffffffffffffffffffffffffffffffffffff1681526020016002820160009054906101000a900473ffffffffffffffffffffffffffffffffffffffff1673ffffffffffffffffffffffffffffffffffffffff1673ffffffffffffffffffffffffffffffffffffffff1681526020016002820160149054906101000a900460ff1660ff1660ff168152602001600382018054611d2b906141d2565b80601f0160208091040260200160405190810160405280929190818152602001828054611d57906141d2565b8015611da45780601f10611d7957610100808354040283529160200191611da4565b820191906000526020600020905b815481529060010190602001808311611d8757829003601f168201915b505050505081526020016004820154815250509050919050565b60008311611e01576040517f08c379a0000000000000000000000000000000000000000000000000000000008152600401611df890613cac565b60405180910390fd5b428111611e43576040517f08c379a0000000000000000000000000000000000000000000000000000000008152600401611e3a906143ef565b60405180910390fd5b60046000815480929190611e5690613bad565b91905055506040518060c0016040528060045481526020013373ffffffffffffffffffffffffffffffffffffffff168152602001848152602001838152602001828152602001600115158152506006600060045481526020019081526020016000206000820151816000015560208201518160010160006101000a81548173ffffffffffffffffffffffffffffffffffffffff021916908373ffffffffffffffffffffffffffffffffffffffff16021790555060408201518160020155606082015181600301556080820151816004015560a08201518160050160006101000a81548160ff0219169083151502179055509050507fedaacb2fdbaacd9918d464208fa0c3011ce8cc40d1c4638a2e4ae33df2e6d7ec60045433858585604051611f83959493929190613d92565b60405180910390a1505050565b60076020528060005260406000206000915090508060000154908060010160009054906101000a900473ffffffffffffffffffffffffffffffffffffffff16908060020154908060030154908060040154908060050160009054906101000a900460ff16905086565b60015481565b612007612cef565b6006600083815260200190815260200160002060050160009054906101000a900460ff1661206a576040517f08c379a00000000000000000000000000000000000000000000000000000000081526004016120619061445b565b60405180910390fd5b600660008381526020019081526020016000206040518060c0016040529081600082015481526020016001820160009054906101000a900473ffffffffffffffffffffffffffffffffffffffff1673ffffffffffffffffffffffffffffffffffffffff1673ffffffffffffffffffffffffffffffffffffffff1681526020016002820154815260200160038201548152602001600482015481526020016005820160009054906101000a900460ff1615151515815250509050919050565b6000600281111561213c5761213b61343e565b5b6008600084815260200190815260200160002060050160009054906101000a900460ff1660028111156121725761217161343e565b5b146121b2576040517f08c379a00000000000000000000000000000000000000000000000000000000081526004016121a9906144c7565b60405180910390fd5b6008600083815260200190815260200160002060020160009054906101000a900473ffffffffffffffffffffffffffffffffffffffff1673ffffffffffffffffffffffffffffffffffffffff163373ffffffffffffffffffffffffffffffffffffffff1614612256576040517f08c379a000000000000000000000000000000000000000000000000000000000815260040161224d90614559565b60405180910390fd5b60016008600084815260200190815260200160002060050160006101000a81548160ff021916908360028111156122905761228f61343e565b5b02179055503373ffffffffffffffffffffffffffffffffffffffff167f7b71d2e00379bd165b2750d54298da2414376699827edca2bce2a096c491d2e983836040516122dd929190614579565b60405180910390a25050565b6122f1612d3d565b600760008381526020019081526020016000206040518060c0016040529081600082015481526020016001820160009054906101000a900473ffffffffffffffffffffffffffffffffffffffff1673ffffffffffffffffffffffffffffffffffffffff1673ffffffffffffffffffffffffffffffffffffffff1681526020016002820154815260200160038201548152602001600482015481526020016005820160009054906101000a900460ff1615151515815250509050919050565b60096020528060005260406000206000915090508060000154908060010154908060020160009054906101000a900473ffffffffffffffffffffffffffffffffffffffff16908060030160009054906101000a900473ffffffffffffffffffffffffffffffffffffffff16908060040154908060050160009054906101000a900460ff16908060050160019054906101000a900460ff16905087565b6000806000806060600080600860008981526020019081526020016000206040518060c0016040529081600082015481526020016001820160009054906101000a900473ffffffffffffffffffffffffffffffffffffffff1673ffffffffffffffffffffffffffffffffffffffff1673ffffffffffffffffffffffffffffffffffffffff1681526020016002820160009054906101000a900473ffffffffffffffffffffffffffffffffffffffff1673ffffffffffffffffffffffffffffffffffffffff1673ffffffffffffffffffffffffffffffffffffffff16815260200160038201548152602001600482018054612544906141d2565b80601f0160208091040260200160405190810160405280929190818152602001828054612570906141d2565b80156125bd5780601f10612592576101008083540402835291602001916125bd565b820191906000526020600020905b8154815290600101906020018083116125a057829003601f168201915b505050505081526020016005820160009054906101000a900460ff1660028111156125eb576125ea61343e565b5b60028111156125fd576125fc61343e565b5b815250509050806000015181602001518260400151836060015184608001518560a001519650965096509650965096505091939550919395565b61263f612d8b565b600560008373ffffffffffffffffffffffffffffffffffffffff1673ffffffffffffffffffffffffffffffffffffffff16815260200190815260200160002060030160009054906101000a900460ff166126ce576040517f08c379a00000000000000000000000000000000000000000000000000000000081526004016126c5906145f5565b60405180910390fd5b600560008373ffffffffffffffffffffffffffffffffffffffff1673ffffffffffffffffffffffffffffffffffffffff168152602001908152602001600020604051806080016040529081600082015481526020016001820160009054906101000a900473ffffffffffffffffffffffffffffffffffffffff1673ffffffffffffffffffffffffffffffffffffffff1673ffffffffffffffffffffffffffffffffffffffff168152602001600282018054612788906141d2565b80601f01602080910402602001604051908101604052809291908181526020018280546127b4906141d2565b80156128015780601f106127d657610100808354040283529160200191612801565b820191906000526020600020905b8154815290600101906020018083116127e457829003601f168201915b505050505081526020016003820160009054906101000a900460ff1615151515815250509050919050565b600a6020528060005260406000206000915090508060000154908060010160009054906101000a900473ffffffffffffffffffffffffffffffffffffffff16908060020160009054906101000a900473ffffffffffffffffffffffffffffffffffffffff16908060020160149054906101000a900460ff16908060030180546128b4906141d2565b80601f01602080910402602001604051908101604052809291908181526020018280546128e0906141d2565b801561292d5780601f106129025761010080835404028352916020019161292d565b820191906000526020600020905b81548152906001019060200180831161291057829003601f168201915b5050505050908060040154905086565b60025481565b600080600d60008473ffffffffffffffffffffffffffffffffffffffff1673ffffffffffffffffffffffffffffffffffffffff16815260200190815260200160002054036129945760009050612a21565b600d60008373ffffffffffffffffffffffffffffffffffffffff1673ffffffffffffffffffffffffffffffffffffffff16815260200190815260200160002054600c60008473ffffffffffffffffffffffffffffffffffffffff1673ffffffffffffffffffffffffffffffffffffffff16815260200190815260200160002054612a1e9190614644565b90505b919050565b3373ffffffffffffffffffffffffffffffffffffffff166007600083815260200190815260200160002060010160009054906101000a900473ffffffffffffffffffffffffffffffffffffffff1673ffffffffffffffffffffffffffffffffffffffff1614612aca576040517f08c379a0000000000000000000000000000000000000000000000000000000008152600401612ac1906146e7565b60405180910390fd5b6007600082815260200190815260200160002060050160009054906101000a900460ff1615612b2e576040517f08c379a0000000000000000000000000000000000000000000000000000000008152600401612b2590614753565b60405180910390fd5b60016007600083815260200190815260200160002060050160006101000a81548160ff0219169083151502179055507fe21fe02c1589242b30be2057f54fd54b7ddc463695d19ffdb54f9ebb0584f24a81604051612b8c9190613022565b60405180910390a150565b6040518060e001604052806000815260200160008152602001600073ffffffffffffffffffffffffffffffffffffffff168152602001600073ffffffffffffffffffffffffffffffffffffffff168152602001600081526020016000151581526020016000151581525090565b828054612c10906141d2565b90600052602060002090601f016020900481019282612c325760008555612c79565b82601f10612c4b57805160ff1916838001178555612c79565b82800160010185558215612c79579182015b82811115612c78578251825591602001919060010190612c5d565b5b509050612c869190612dcb565b5090565b6040518060c0016040528060008152602001600073ffffffffffffffffffffffffffffffffffffffff168152602001600073ffffffffffffffffffffffffffffffffffffffff168152602001600060ff16815260200160608152602001600081525090565b6040518060c0016040528060008152602001600073ffffffffffffffffffffffffffffffffffffffff1681526020016000815260200160008152602001600081526020016000151581525090565b6040518060c0016040528060008152602001600073ffffffffffffffffffffffffffffffffffffffff1681526020016000815260200160008152602001600081526020016000151581525090565b604051806080016040528060008152602001600073ffffffffffffffffffffffffffffffffffffffff168152602001606081526020016000151581525090565b5b80821115612de4576000816000905550600101612dcc565b5090565b6000604051905090565b600080fd5b600080fd5b6000819050919050565b612e0f81612dfc565b8114612e1a57600080fd5b50565b600081359050612e2c81612e06565b92915050565b600073ffffffffffffffffffffffffffffffffffffffff82169050919050565b6000612e5d82612e32565b9050919050565b612e6d81612e52565b8114612e7857600080fd5b50565b600081359050612e8a81612e64565b92915050565b600080600060608486031215612ea957612ea8612df2565b5b6000612eb786828701612e1d565b9350506020612ec886828701612e7b565b9250506040612ed986828701612e1d565b9150509250925092565b600060208284031215612ef957612ef8612df2565b5b6000612f0784828501612e1d565b91505092915050565b612f1981612dfc565b82525050565b6000612f2a82612e32565b9050919050565b612f3a81612f1f565b82525050565b612f4981612e52565b82525050565b60008115159050919050565b612f6481612f4f565b82525050565b60e082016000820151612f806000850182612f10565b506020820151612f936020850182612f10565b506040820151612fa66040850182612f31565b506060820151612fb96060850182612f40565b506080820151612fcc6080850182612f10565b5060a0820151612fdf60a0850182612f5b565b5060c0820151612ff260c0850182612f5b565b50505050565b600060e08201905061300d6000830184612f6a565b92915050565b61301c81612dfc565b82525050565b60006020820190506130376000830184613013565b92915050565b60008060006060848603121561305657613055612df2565b5b600061306486828701612e1d565b935050602061307586828701612e1d565b925050604061308686828701612e1d565b9150509250925092565b61309981612f1f565b81146130a457600080fd5b50565b6000813590506130b681613090565b92915050565b6000602082840312156130d2576130d1612df2565b5b60006130e0848285016130a7565b91505092915050565b600060ff82169050919050565b6130ff816130e9565b811461310a57600080fd5b50565b60008135905061311c816130f6565b92915050565b600080fd5b600080fd5b6000601f19601f8301169050919050565b7f4e487b7100000000000000000000000000000000000000000000000000000000600052604160045260246000fd5b6131758261312c565b810181811067ffffffffffffffff821117156131945761319361313d565b5b80604052505050565b60006131a7612de8565b90506131b3828261316c565b919050565b600067ffffffffffffffff8211156131d3576131d261313d565b5b6131dc8261312c565b9050602081019050919050565b82818337600083830152505050565b600061320b613206846131b8565b61319d565b90508281526020810184848401111561322757613226613127565b5b6132328482856131e9565b509392505050565b600082601f83011261324f5761324e613122565b5b813561325f8482602086016131f8565b91505092915050565b6000806000806080858703121561328257613281612df2565b5b600061329087828801612e1d565b94505060206132a1878288016130a7565b93505060406132b28782880161310d565b925050606085013567ffffffffffffffff8111156132d3576132d2612df7565b5b6132df8782880161323a565b91505092959194509250565b6132f481612f1f565b82525050565b600081519050919050565b600082825260208201905092915050565b60005b83811015613334578082015181840152602081019050613319565b83811115613343576000848401525b50505050565b6000613354826132fa565b61335e8185613305565b935061336e818560208601613316565b6133778161312c565b840191505092915050565b61338b81612f4f565b82525050565b60006080820190506133a66000830187613013565b6133b360208301866132eb565b81810360408301526133c58185613349565b90506133d46060830184613382565b95945050505050565b600060c0820190506133f26000830189613013565b6133ff60208301886132eb565b61340c6040830187613013565b6134196060830186613013565b6134266080830185613013565b61343360a0830184613382565b979650505050505050565b7f4e487b7100000000000000000000000000000000000000000000000000000000600052602160045260246000fd5b6003811061347e5761347d61343e565b5b50565b600081905061348f8261346d565b919050565b600061349f82613481565b9050919050565b6134af81613494565b82525050565b600060c0820190506134ca6000830189613013565b6134d760208301886132eb565b6134e460408301876132eb565b6134f16060830186613013565b81810360808301526135038185613349565b905061351260a08301846134a6565b979650505050505050565b6000806040838503121561353457613533612df2565b5b6000613542858286016130a7565b925050602061355385828601612e1d565b9150509250929050565b60008060006060848603121561357657613575612df2565b5b600061358486828701612e1d565b9350506020613595868287016130a7565b925050604084013567ffffffffffffffff8111156135b6576135b5612df7565b5b6135c28682870161323a565b9150509250925092565b6000602082840312156135e2576135e1612df2565b5b600082013567ffffffffffffffff811115613600576135ff612df7565b5b61360c8482850161323a565b91505092915050565b600081519050919050565b600082825260208201905092915050565b6000819050602082019050919050565b600061364d8383612f10565b60208301905092915050565b6000602082019050919050565b600061367182613615565b61367b8185613620565b935061368683613631565b8060005b838110156136b757815161369e8882613641565b97506136a983613659565b92505060018101905061368a565b5085935050505092915050565b600060208201905081810360008301526136de8184613666565b905092915050565b6136ef816130e9565b82525050565b600082825260208201905092915050565b6000613711826132fa565b61371b81856136f5565b935061372b818560208601613316565b6137348161312c565b840191505092915050565b600060c0830160008301516137576000860182612f10565b50602083015161376a6020860182612f31565b50604083015161377d6040860182612f31565b50606083015161379060608601826136e6565b50608083015184820360808601526137a88282613706565b91505060a08301516137bd60a0860182612f10565b508091505092915050565b600060208201905081810360008301526137e2818461373f565b905092915050565b60c0820160008201516138006000850182612f10565b5060208201516138136020850182612f31565b5060408201516138266040850182612f10565b5060608201516138396060850182612f10565b50608082015161384c6080850182612f10565b5060a082015161385f60a0850182612f5b565b50505050565b600060c08201905061387a60008301846137ea565b92915050565b6000806040838503121561389757613896612df2565b5b60006138a585828601612e1d565b925050602083013567ffffffffffffffff8111156138c6576138c5612df7565b5b6138d28582860161323a565b9150509250929050565b60c0820160008201516138f26000850182612f10565b5060208201516139056020850182612f31565b5060408201516139186040850182612f10565b50606082015161392b6060850182612f10565b50608082015161393e6080850182612f10565b5060a082015161395160a0850182612f5b565b50505050565b600060c08201905061396c60008301846138dc565b92915050565b61397b81612e52565b82525050565b600060e082019050613996600083018a613013565b6139a36020830189613013565b6139b060408301886132eb565b6139bd6060830187613972565b6139ca6080830186613013565b6139d760a0830185613382565b6139e460c0830184613382565b98975050505050505050565b6000608083016000830151613a086000860182612f10565b506020830151613a1b6020860182612f31565b5060408301518482036040860152613a338282613706565b9150506060830151613a486060860182612f5b565b508091505092915050565b60006020820190508181036000830152613a6d81846139f0565b905092915050565b613a7e816130e9565b82525050565b600060c082019050613a996000830189613013565b613aa660208301886132eb565b613ab360408301876132eb565b613ac06060830186613a75565b8181036080830152613ad28185613349565b9050613ae160a0830184613013565b979650505050505050565b7f526566756e6420616d6f756e74206d757374206265206772656174657220746860008201527f616e207a65726f00000000000000000000000000000000000000000000000000602082015250565b6000613b48602783613305565b9150613b5382613aec565b604082019050919050565b60006020820190508181036000830152613b7781613b3b565b9050919050565b7f4e487b7100000000000000000000000000000000000000000000000000000000600052601160045260246000fd5b6000613bb882612dfc565b91507fffffffffffffffffffffffffffffffffffffffffffffffffffffffffffffffff8203613bea57613be9613b7e565b5b600182019050919050565b6000608082019050613c0a6000830187613013565b613c176020830186613013565b613c2460408301856132eb565b613c316060830184613013565b95945050505050565b7f5175616e74697479206d7573742062652067726561746572207468616e207a6560008201527f726f000000000000000000000000000000000000000000000000000000000000602082015250565b6000613c96602283613305565b9150613ca182613c3a565b604082019050919050565b60006020820190508181036000830152613cc581613c89565b9050919050565b6000613cd782612dfc565b9150613ce283612dfc565b9250817fffffffffffffffffffffffffffffffffffffffffffffffffffffffffffffffff0483118215151615613d1b57613d1a613b7e565b5b828202905092915050565b7f496e636f7272656374207061796d656e7420616d6f756e740000000000000000600082015250565b6000613d5c601883613305565b9150613d6782613d26565b602082019050919050565b60006020820190508181036000830152613d8b81613d4f565b9050919050565b600060a082019050613da76000830188613013565b613db460208301876132eb565b613dc16040830186613013565b613dce6060830185613013565b613ddb6080830184613013565b9695505050505050565b7f4f6e6c7920746865206661726d65722063616e20617070726f7665207468652060008201527f726566756e640000000000000000000000000000000000000000000000000000602082015250565b6000613e41602683613305565b9150613e4c82613de5565b604082019050919050565b60006020820190508181036000830152613e7081613e34565b9050919050565b7f526566756e6420697320616c7265616479207265736f6c766564000000000000600082015250565b6000613ead601a83613305565b9150613eb882613e77565b602082019050919050565b60006020820190508181036000830152613edc81613ea0565b9050919050565b600081905092915050565b50565b6000613efe600083613ee3565b9150613f0982613eee565b600082019050919050565b6000613f1f82613ef1565b9150819050919050565b7f526566756e64207472616e73666572206661696c656400000000000000000000600082015250565b6000613f5f601683613305565b9150613f6a82613f29565b602082019050919050565b60006020820190508181036000830152613f8e81613f52565b9050919050565b6000604082019050613faa6000830185613013565b613fb76020830184613013565b9392505050565b6000606082019050613fd36000830186613013565b613fe06020830185613013565b613fed6040830184613013565b949350505050565b7f526174696e67206d757374206265206265747765656e203120616e6420350000600082015250565b600061402b601e83613305565b915061403682613ff5565b602082019050919050565b6000602082019050818103600083015261405a8161401e565b9050919050565b7f52657669657720616c72656164792065786973747320666f722074686973206f60008201527f7264657200000000000000000000000000000000000000000000000000000000602082015250565b60006140bd602483613305565b91506140c882614061565b604082019050919050565b600060208201905081810360008301526140ec816140b0565b9050919050565b60006140fe82612dfc565b915061410983612dfc565b9250827fffffffffffffffffffffffffffffffffffffffffffffffffffffffffffffffff0382111561413e5761413d613b7e565b5b828201905092915050565b600060a08201905061415e6000830188613013565b61416b60208301876132eb565b61417860408301866132eb565b6141856060830185613a75565b81810360808301526141978184613349565b90509695505050505050565b7f4e487b7100000000000000000000000000000000000000000000000000000000600052602260045260246000fd5b600060028204905060018216806141ea57607f821691505b6020821081036141fd576141fc6141a3565b5b50919050565b60006060820190506142186000830186613013565b6142256020830185613013565b81810360408301526142378184613349565b9050949350505050565b7f4f6e6c7920746865206661726d65722063616e2072656a65637420746865207260008201527f6566756e64000000000000000000000000000000000000000000000000000000602082015250565b600061429d602583613305565b91506142a882614241565b604082019050919050565b600060208201905081810360008301526142cc81614290565b9050919050565b7f4661726d657220697320616c7265616479207265676973746572656400000000600082015250565b6000614309601c83613305565b9150614314826142d3565b602082019050919050565b60006020820190508181036000830152614338816142fc565b9050919050565b60006060820190506143546000830186613013565b61436160208301856132eb565b81810360408301526143738184613349565b9050949350505050565b7f4578706972792064617465206d75737420626520696e2074686520667574757260008201527f6500000000000000000000000000000000000000000000000000000000000000602082015250565b60006143d9602183613305565b91506143e48261437d565b604082019050919050565b60006020820190508181036000830152614408816143cc565b9050919050565b7f4d696c6b206261746368206973206e6f7420617661696c61626c650000000000600082015250565b6000614445601b83613305565b91506144508261440f565b602082019050919050565b6000602082019050818103600083015261447481614438565b9050919050565b7f4469737075746520616c726561647920636c6f73656400000000000000000000600082015250565b60006144b1601683613305565b91506144bc8261447b565b602082019050919050565b600060208201905081810360008301526144e0816144a4565b9050919050565b7f4f6e6c7920746865206661726d65722063616e207265736f6c7665207468652060008201527f6469737075746500000000000000000000000000000000000000000000000000602082015250565b6000614543602783613305565b915061454e826144e7565b604082019050919050565b6000602082019050818103600083015261457281614536565b9050919050565b600060408201905061458e6000830185613013565b81810360208301526145a08184613349565b90509392505050565b7f4661726d6572206973206e6f7420726567697374657265640000000000000000600082015250565b60006145df601883613305565b91506145ea826145a9565b602082019050919050565b6000602082019050818103600083015261460e816145d2565b9050919050565b7f4e487b7100000000000000000000000000000000000000000000000000000000600052601260045260246000fd5b600061464f82612dfc565b915061465a83612dfc565b92508261466a57614669614615565b5b828204905092915050565b7f4f6e6c79207468652062757965722063616e20636f6e6669726d2064656c697660008201527f6572790000000000000000000000000000000000000000000000000000000000602082015250565b60006146d1602383613305565b91506146dc82614675565b604082019050919050565b60006020820190508181036000830152614700816146c4565b9050919050565b7f4f7264657220616c72656164792064656c697665726564000000000000000000600082015250565b600061473d601783613305565b915061474882614707565b602082019050919050565b6000602082019050818103600083015261476c81614730565b905091905056fea264697066735822122078fc3a4cc4924ae556ac3b23fdd3ac957573f2ae9b7afe4e8760106c7b18ad0d64736f6c634300080d0033",
  "immutableReferences": {},
  "source": "\r\n// SPDX-License-Identifier: MIT\r\npragma solidity >0.4.0 <= 0.9.0;\r\n\r\ncontract FarmerRegistration {\r\n     enum DisputeStatus { Open, Resolved, Rejected }\r\n    //stores the number of registered farmers\r\n    uint public farmerCounter = 0;\r\n    uint public orderCounter = 0;\r\n    uint public refundCounter = 0;\r\n     uint public disputeCounter;\r\n\r\n   //stores information about farmers \r\n    struct Farmer {\r\n        uint id;\r\n        address farmerAddress;\r\n        string name;\r\n        bool isRegistered;\r\n    }\r\n     uint public batchCounter = 0;\r\n\r\n    \r\n\r\n    //stores batch details \r\n    struct MilkBatch {\r\n        uint batchId;\r\n        address farmerAddress;\r\n        uint quantity;\r\n        uint pricePerLiter;\r\n        uint expiryDate;\r\n        bool isAvailable;\r\n    }\r\n    //stores order details\r\n    struct Order {\r\n        uint orderId;\r\n        address buyer;\r\n        uint batchId;\r\n        uint quantity;\r\n        uint totalPrice;\r\n        bool isDelivered;\r\n    }\r\n    //stores dispute details\r\n    struct Dispute {\r\n        uint disputeId;\r\n        address consumer;\r\n        address farmer;\r\n        uint batchId;\r\n        string reason;\r\n        DisputeStatus status;\r\n\r\n    }\r\n    //stores details concerning refunds\r\n    struct RefundRequest {\r\n        uint refundId;\r\n        uint orderId;\r\n        address buyer;\r\n        address payable farmer;\r\n        uint amount;\r\n        bool isApproved;\r\n        bool isResolved;\r\n    }\r\n    //stores reviews\r\n    struct Review {\r\n        uint orderId;\r\n        address buyer;\r\n        address farmer;\r\n        uint8 rating; // Rating from 1 to 5\r\n        string comment;\r\n        uint timestamp;\r\n    }\r\n\r\n\r\n   //stores farmers  registered  using their wallet address\r\n    mapping(address => Farmer) public farmers;\r\n    //stores milk batch with their unique id\r\n     mapping(uint => MilkBatch) public milkBatches;\r\n     //stores orders with their id\r\n       mapping(uint => Order) public orders;\r\n     //stores disputes with unique id\r\n       mapping(uint => Dispute) public disputes;\r\n       //stores refunds with unique id\r\n       mapping(uint => RefundRequest) public refunds;\r\n       \r\n    mapping(uint => Review) public reviews;\r\n    mapping(address => uint[]) public farmerReviews; // Tracks all reviews for each farmer\r\n    mapping(address => uint) public totalRatings;\r\n    mapping(address => uint) public ratingCount;\r\n\r\n    \r\n\r\n   //emitted whenever a farmer is registered\r\n    event FarmerRegistered(uint farmerId, address farmerAddress, string name);\r\n    //emitted whenever a batch is registered\r\n    event MilkBatchRegistered(uint batchId, address farmerAddress, uint quantity, uint pricePerLiter, uint expiryDate);\r\n    //emitted whenever an order is placed\r\n    event OrderPlaced(uint orderId, address buyer, uint batchId, uint quantity, uint totalPrice);\r\n    //emitted whenever an order is delivered\r\n    event OrderDelivered(uint orderId);\r\n    \r\n    event DisputeFiled(uint disputeId, address indexed consumer, uint batchId, string reason);\r\n    event DisputeResolved(uint disputeId, address indexed farmer, string resolution);\r\n    event DisputeRejected(uint disputeId, address indexed farmer, string reason);\r\n    \r\n    event RefundRequested(uint refundId, uint orderId, address buyer, uint amount);\r\n    event RefundApproved(uint refundId, uint orderId);\r\n    event RefundRejected(uint refundId, uint orderId);\r\n    event RefundPaid(uint refundId, uint orderId, uint amount);\r\n    \r\n    event ReviewSubmitted(uint orderId, address buyer, address farmer, uint8 rating, string comment);\r\n\r\n    modifier validRating(uint8 _rating) {\r\n        require(_rating >= 1 && _rating <= 5, \"Rating must be between 1 and 5\");\r\n        _;\r\n    }\r\n\r\n\r\n    function registerFarmer(string memory _name) public {\r\n        require(!farmers[msg.sender].isRegistered, \"Farmer is already registered\");\r\n\r\n        // increases whenever a farmer is registered\r\n        farmerCounter++;\r\n        farmers[msg.sender] = Farmer(farmerCounter, msg.sender, _name, true);\r\n\r\n        emit FarmerRegistered(farmerCounter, msg.sender, _name);\r\n    }\r\n\r\n\r\n    function getFarmer(address _farmer) public view returns (Farmer memory) {\r\n        require(farmers[_farmer].isRegistered, \"Farmer is not registered\");\r\n        return farmers[_farmer];\r\n    }\r\n    \r\n    function registerMilkBatch(uint _quantity, uint _pricePerLiter, uint _expiryDate) public {\r\n        require(_quantity > 0, \"Quantity must be greater than zero\");\r\n        require(_expiryDate > block.timestamp, \"Expiry date must be in the future\");\r\n\r\n        batchCounter++;\r\n        milkBatches[batchCounter] = MilkBatch(batchCounter, msg.sender, _quantity, _pricePerLiter, _expiryDate, true);\r\n\r\n        emit MilkBatchRegistered(batchCounter, msg.sender, _quantity, _pricePerLiter, _expiryDate);\r\n    }\r\n    \r\n    function getMilkBatch(uint _batchId) public view returns (MilkBatch memory) {\r\n        require(milkBatches[_batchId].isAvailable, \"Milk batch is not available\");\r\n        return milkBatches[_batchId];\r\n    }\r\n    \r\n    function placeOrder(uint _batchId, uint _quantity, uint _pricePerLiter) public payable {\r\n        require(_quantity > 0, \"Quantity must be greater than zero\");\r\n        uint totalPrice = _quantity * _pricePerLiter;\r\n        require(msg.value == totalPrice, \"Incorrect payment amount\");\r\n\r\n        orderCounter++;\r\n        orders[orderCounter] = Order(orderCounter, msg.sender, _batchId, _quantity, totalPrice, false);\r\n\r\n        emit OrderPlaced(orderCounter, msg.sender, _batchId, _quantity, totalPrice);\r\n    }\r\n    \r\n    function confirmDelivery(uint _orderId) public {\r\n        require(orders[_orderId].buyer == msg.sender, \"Only the buyer can confirm delivery\");\r\n        require(!orders[_orderId].isDelivered, \"Order already delivered\");\r\n\r\n        orders[_orderId].isDelivered = true;\r\n\r\n        emit OrderDelivered(_orderId);\r\n    }\r\n     function getOrder(uint _orderId) public view returns (Order memory) {\r\n        return orders[_orderId];\r\n    }\r\n      function fileDispute(uint _batchId, address _farmer, string memory _reason) external {\r\n        disputeCounter++;\r\n\r\n        disputes[disputeCounter] = Dispute({\r\n            disputeId: disputeCounter,\r\n            consumer: msg.sender,\r\n            farmer: _farmer,\r\n            batchId: _batchId,\r\n            reason: _reason,\r\n            status: DisputeStatus.Open\r\n        });\r\n\r\n        emit DisputeFiled(disputeCounter, msg.sender, _batchId, _reason);\r\n    }\r\n    \r\n    // Farmers resolve disputes related to their batches\r\n    function resolveDispute(uint _disputeId, string memory _resolution) external {\r\n        require(disputes[_disputeId].status == DisputeStatus.Open, \"Dispute already closed\");\r\n        require(msg.sender == disputes[_disputeId].farmer, \"Only the farmer can resolve the dispute\");\r\n\r\n        disputes[_disputeId].status = DisputeStatus.Resolved;\r\n\r\n        emit DisputeResolved(_disputeId, msg.sender, _resolution);\r\n    }\r\n       // View dispute details\r\n    function getDispute(uint _disputeId) external view returns (\r\n        uint, address, address, uint, string memory, DisputeStatus\r\n    ) {\r\n        Dispute memory d = disputes[_disputeId];\r\n        return (d.disputeId, d.consumer, d.farmer, d.batchId, d.reason, d.status);\r\n    }\r\n    \r\n    function requestRefund(uint _orderId, address payable _farmer, uint _amount) public {\r\n        require(_amount > 0, \"Refund amount must be greater than zero\");\r\n\r\n        refundCounter++;\r\n        refunds[refundCounter] = RefundRequest(refundCounter, _orderId, msg.sender, _farmer, _amount, false, false);\r\n\r\n        emit RefundRequested(refundCounter, _orderId, msg.sender, _amount);\r\n    }\r\n    \r\n    function approveRefund(uint _refundId) public {\r\n    RefundRequest storage refund = refunds[_refundId];\r\n    require(msg.sender == refund.farmer, \"Only the farmer can approve the refund\");\r\n    require(!refund.isResolved, \"Refund is already resolved\");\r\n\r\n    refund.isApproved = true;\r\n    refund.isResolved = true;\r\n\r\n    // Store recipient and amount first (CHECKS & EFFECTS)\r\n    address payable recipient = payable(refund.buyer);\r\n    uint amount = refund.amount;\r\n\r\n    // Send Ether last (INTERACTIONS)\r\n    (bool success, ) = recipient.call{value: amount}(\"\");\r\n    require(success, \"Refund transfer failed\");\r\n\r\n    emit RefundApproved(_refundId, refund.orderId);\r\n    emit RefundPaid(_refundId, refund.orderId, amount);\r\n}\r\n\r\n    function rejectRefund(uint _refundId) public {\r\n        RefundRequest storage refund = refunds[_refundId];\r\n        require(msg.sender == refund.farmer, \"Only the farmer can reject the refund\");\r\n        require(!refund.isResolved, \"Refund is already resolved\");\r\n\r\n        refund.isResolved = true;\r\n\r\n        emit RefundRejected(_refundId, refund.orderId);\r\n    }\r\n    \r\n    function getRefundRequest(uint _refundId) public view returns (RefundRequest memory) {\r\n        return refunds[_refundId];\r\n    }\r\n     function submitReview(uint _orderId, address _farmer, uint8 _rating, string memory _comment) \r\n        public validRating(_rating) \r\n    {\r\n        require(reviews[_orderId].orderId == 0, \"Review already exists for this order\");\r\n\r\n        reviews[_orderId] = Review(_orderId, msg.sender, _farmer, _rating, _comment, block.timestamp);\r\n        farmerReviews[_farmer].push(_orderId);\r\n\r\n        totalRatings[_farmer] += _rating;\r\n        ratingCount[_farmer]++;\r\n\r\n        emit ReviewSubmitted(_orderId, msg.sender, _farmer, _rating, _comment);\r\n    }\r\n    \r\n    function getReview(uint _orderId) public view returns (Review memory) {\r\n        return reviews[_orderId];\r\n    }\r\n    \r\n   \r\n    function getFarmerAverageRating(address _farmer) public view returns (uint) {\r\n        if (ratingCount[_farmer] == 0) {\r\n            return 0;\r\n        }\r\n        return totalRatings[_farmer] / ratingCount[_farmer];\r\n    }\r\n    \r\n    function getFarmerReviews(address _farmer) public view returns (uint[] memory) {\r\n        return farmerReviews[_farmer];\r\n    }\r\n\r\n\r\n\r\n\r\n}\r\n",
  "sourcePath": "C:\\Users\\IEBC\\Documents\\solidity\\contracts\\FarmerRegistration.sol",
  "compiler": {
    "name": "solc",
    "version": "0.8.13+commit.abaa5c0e.Emscripten.clang"
  },
  "schemaVersion": "3.4.16",
  "updatedAt": "2025-02-22T15:15:01.271Z",
  "networkType": "ethereum",
  "devdoc": {
    "kind": "dev",
    "methods": {},
    "version": 1
  },
  "userdoc": {
    "kind": "user",
    "methods": {},
    "version": 1
  }
}